:020000040000FA
:06000000021700020A369F
:03001300020AF2EC
:03002B0002147745
:03003300020C803C
:03003B00020B476E
:03004B0002138B12
:0300530002096B34
:03005B000211E3AC
:0300630002120482
:03006B00020C265E
:03007B00020C571D
:100083000209CA010020FD000201FC050000000175
:10009300CE1DE01D0000E61DEC1D00000000F21D5A
:1000A3000A1E101E161E00000000000000000102C0
:1000B3000408102040801801FF0D01010401FEFF18
:1000C300000000000000000612FFFFFFFFFFFFFF1C
:1000D30001010104007015000000E8030000FFFFA8
:1000E300C415E803000064006400B801A0BB0D0060
:1000F300A0BB0D00020200F8FF0705021E04010564
:100103001E02051E020A0A010108080310270280C5
:100113003E0102FEFFE8030A050001FFFF020A1485
:1001230001E002000000C503423F1A51123FF304ED
:10013300B53F0000803EFFFFFF0005030101FF57AD
:100143003B000000002B3A00000000FF000000FF0E
:1001530000C082C083E9FA5407F8745E28F582E48C
:100163003418F583E0F87900EA1202F960081460A4
:100173000914600D8012E5808002E59058700780B5
:1001830007E5A05860027901020261C082C08312B0
:100193000392600814601214601C802BEA6005EB64
:1001A30042808023E85280801EEA6005EB42908003
:1001B30016E852908011EBC39420500BEA6005EBD4
:1001C30042A08003E852A0020261C082C0831202EF
:1001D300FF70030202611202F8600814602C1460BD
:1001E30050807BE852F374016A601274026A6015EE
:1001F30074046A7003EB428FEB42FD806153F7DFB7
:10020300E8528F80F343F72080F6E852F474016AD2
:10021300601274026A601574046A7003EB42F6EBB1
:1002230042FE803A53F7BFE852F680F343F740802B
:10023300F6EBC394205027E852F574016A601274F8
:10024300026A601574046A7003EB42F7EB42FF80A5
:100253000D53F77FE852F780F343F78080F6D0839E
:10026300D08222C082C0831202FF60791202F8603A
:100273000814602B14604E806CE852F352FD740135
:100283006A600F74026A600F74046A7058EB428FDD
:10029300805353F7DF800343F720E8528F8046E80B
:1002A30052F452FE74016A600F74026A600F7404A0
:1002B3006A7032EB42F6802D53F7BF800343F74059
:1002C300E852F68020EBC39420501AE844E0F85239
:1002D300F552FF74016A601074026A601374046A51
:1002E3007003EB42F702026153F77FE852F780F5A0
:1002F30043F78080F6E9C4540F54032212039CEBA6
:1003030022C082C0831202FF603A1202F86008140E
:10031300601214601C802DEA6005EB42FD8025E825
:1003230052FD8020EA6005EB42FE8018E852FE8011
:1003330013EBC39420500DEA6005EB42FF80057474
:10034300E04852FF020261C082C083120392600838
:100353001460151460228034EA6005EB4280800348
:10036300E85280EB42FD8024EA6005EB4290800373
:10037300E85290EB42FE8014EBC39420500EEA60E7
:1003830005EB42A08003E852A0EB42FF0202611298
:10039300039CE9C4540F540322E95407FC745E2CF4
:1003A300F582E43418F583E0FBF4F8221202F860D6
:1003B30007146013146020227801E8F4FBEA60203C
:1003C30014602114601522740F59C39404500478E7
:1003D3000280E7780480E3780880DFE58C586004C6
:1003E300EB528C22E8428C22121710601D12171F49
:1003F3007005191919801A121579701F1215A1C3E6
:100403007003E667331919194007181818220808EA
:100413000874FFF618F618F618F6221215A16017DD
:100423001217C5702192F01217CE7019501720F0D1
:1004330014080808090909E7F61819E7F61819E76F
:10044300F61819E7F6221217CE60E6E869701F085E
:1004530008E62480F608E436F618547FB47F0CE6E9
:1004630054806007F6E418F618F622181822E9C635
:10047300CC08C6CD08C6CE08C6CFC0E0E8C0E0EAC7
:10048300C0E0EBC0E009E9F809E7FA09E7FBE6F9A0
:1004930018E6F8C3EC98ED99EE9AEBC2E7F5F0EFA6
:1004A300C2E795F0500E600CEBCFFBEACEFAE9CD34
:1004B300F9E8CCF8EAA2E7D2E7FAEB33FB13F5F05D
:1004C300EEA2E7D2E7FEEF33FFC5F013A2E730E673
:1004D30001B313C5F0C3C0E0C0F07F00C39BFB6052
:1004E3005E9418600F401D14601AD0E023F9D0E029
:1004F300F80205CC8AF0E9486003D2F0E4AFF0FAE1
:10050300F9F8803BEB30E40D89F0EA6003D2F0E4C4
:10051300AFF0F9CAF8EB30E30D88F0EF6002D2F0E8
:10052300AFF0E4CAC9F8EB54076014FBC3EA13FA4B
:10053300E913F9E813F8EF135002D2E0FFDBEDD033
:10054300E0C0E030E739C3E49FFFF5F0EC98FC42EC
:10055300F0ED99FD42F0EE9AFE42F0D0E0F9D0E0E2
:10056300F8E5F0607AE923F9EE20E742D8028067E4
:10057300C3EF33FFEC33FCED33FDEE33FE80EAECE7
:1005830028FCED39FDEE3AFED0E023F9D0E0F84047
:1005930002801BC3EE13FEED13FDEC13FCEF1350AF
:1005A30002D2E0FF08B800067F7F74FF802EEF338E
:1005B30050178CF020F00260100CBC000C0DBD0035
:1005C300080EBE000408E860DFE933E813FFEE23FA
:1005D30013FE4F4D4C8008E95480FFE4FEFDFCEE12
:1005E30033EF33F47004FCFD7E80D0E0FBD0E0FAFF
:1005F300D0E0F8D0E0CFC618CEC618CDC618CCC60A
:10060300F92212171070041818182212171F700DF0
:1006130074FFF61819F61819F61819F622E754801C
:1006230066F61217CE700F1217C570F014F608F69F
:1006330008F608F680D11217C5700CF608F608768E
:100643008008E6447F80EC1215A4700C12157C60C0
:10065300BFE65480F6E480BB12157C7005191919A6
:1006630080A5E869700C763F18768018F618F6E8CE
:10067300F922E6CDC0E018ECC0E0E633CD33CDD3AC
:1006830013F6E719FCE7191933CC33C3947F400EF3
:10069300CD9D502408E65480F6E418F6800FF40448
:1006A3003D14501408E6447FF6187680E418F618D3
:1006B300F6D0E0FCD0E0FD22CCD313CCFD18E4C689
:1006C300CBC0E018E4C6CAC0E00808ED08C633E6AC
:1006D30013F618E433C675F003C3CA97CA09CB9758
:1006E300CB199C40047D08802EBD00030207AE1683
:1006F300B6FF050606081618C3CA33CACB33CB3375
:10070300CA27CA09CB37CB193CC37D08803E187D65
:100713000820E75CC633C6CA33CACB33CB33DDF11B
:10072300D5F0EB30E77BCA97CA09CB974ACB199C24
:10073300406F4B7025E620E0218066187D08C3CA10
:1007430097CA09CB97CB199CD3C633C6CA33CACB36
:1007530033CB3350C9DDE7D5F0E1D3E4C636C60861
:10076300C636C608C636C608C636C6181818803137
:10077300C3CA97CA09CB97CB199CB34097C633C654
:10078300CA33CACB33CB33DD34D5F02EC6A2E0C691
:1007930040C8CA27CA09CB37194A70BECB3CB480BC
:1007A300B90808E63308E633601F181818D0E0FAD2
:1007B300D0E0FBD0E0FCD0E0FD22187D08CA27CAB8
:1007C30009CB37CB193CD3808013F618E4B67F11DD
:1007D300F618B6FF0EF618C60470D20808768080A5
:1007E300CAF618F618F680C500121710604F1217D4
:1007F3001F6012E7548066F612157970111217C53F
:10080300703B090909F4F618F618F618F6221215C2
:10081300A170151217CE08080860EAE6447FF6189F
:10082300768018E4F618F6221217CE60161217C552
:100833007012E4F608F608F608E65480F60909098A
:1008430018181822EAC0E0EBC0E0ECC0E0EDC0E00D
:10085300E687F0A4FBACF008E687F0A42CFCE435B3
:10086300F0FA1809E687F0A42C4B60027401CA352C
:10087300F0FCE433FB09E687F0D2F7A42CCB35F088
:10088300FC1908E687F0A42BCC35F0FBE433FD0814
:1008930019E687F0D2E7A42C4ACB35F0CD3400FC1F
:1008A30009E687F0D2E7A42DCC35F0FDE433FA094D
:1008B30018E687F0D2F7A42CCD35F0CA3400FC0833
:1008C300E687F0D2E7D2F7A42ACC35F07A7E20E788
:1008D3000B0ACB33CBCD33CDCC33CC33CB3350140A
:1008E3007004ED30E00ED2F1E4CD3DCDCC3CCC3BF9
:1008F3005005DA05C2F1EB547FC63308E63392F0B4
:10090300FBE73309E733C39A502D2B70190C0D4CB9
:100913004D70151806E608C333700D20F10AA2F0D6
:1009230013F6E418800B4024E4F630F002768018C6
:10093300F618F618F68024D33B14501074FFA2F077
:1009430013F6187680E418F618F6800FA2F013F663
:1009530018E63303F618ECF618EDF6D0E0FDD0E018
:10096300FCD0E0FBD0E0FA22C0E074F1120E7CA2CE
:10097300AFE433F509D2AF85A708AFA1EF5508FE61
:1009830074105E6006121AC275A1EF74085E6008E7
:10099300121AC875A1F78024EFA2E092F0E508A22D
:1009A300E082F05017906198E0F890056CE0C398EE
:1009B300A2D265D0335002E8F075A1FEE509A2E0AA
:1009C30092AF7F02020EDBC0E074F2120E7CA2AF84
:1009D300E433FED2AF9061A4E0F8759B00E5915833
:1009E300540860087591F7121B108023E591585441
:1009F3001060087591EF121B168014E591A2E09226
:100A0300F0E8A2E082F05007E0C2E0F0121C609030
:100A130061A3E0F8E5E9585404600E121C3675E949
:100A2300FB906193E0A2E640F2EEA2E092AF7F0179
:100A3300020EDBC0E074F2120E7CA2AFE433FED2EE
:100A4300AF9061A5E0F8E5BF585404600675BFFB9D
:100A5300121C7880D4C3E498F8E499F9120A9980B7
:100A630026C3E49AFAE49BFBE920E7E9120A99E436
:100A730098F8E499F922C3E498F8E499F9120A99E9
:100A8300E498F8E499F9C3E49AFAE49BFB22EB2097
:100A9300E7CFE920E7E0B90010BB0008E88AF0845B
:100AA300F8AAF022E4FBC8FA22EB70227B10C833C9
:100AB300C8C933C9335007C39AC3DBF280069A50BF
:100AC300012ADBEAC833F4C8C933F4C9FA2275F042
:100AD30008E4C833C8C933C933C99AC99B5004C988
:100AE3002AC93BD5F0ECFBC833F4C8E4C9FA22C0E9
:100AF300E0C0D0E8C0E0E9C0E0C082C083A8C1E89C
:100B0300C0E09004D9E0F8745828F582E43404F581
:100B130083D0E0F09004D8E0F8A3E0687006E59590
:100B23009004DBF09004D9E004F0C394804002E425
:100B3300F0A374C6F0D083D082D0E0F9D0E0F8D02F
:100B4300D0D0E032C0E0C0D0E8C0E0E9C0E0C0826D
:100B5300C08390055CE0F8A3E0687008539AFBA398
:100B630074018022C2E990055CE0F8740128F074F6
:100B7300DC28F582E43404F583E0F5C190055CE0FC
:100B8300C394804002E4F080AC120BD730F03912EA
:100B93000C1C8034120BD720F01430E72B74FFFCAD
:100BA300FBFA747F8022E4FCFBFA7480801AB48021
:100BB30008BC00F2BB00EF800F50EBF9E4C39AFAD4
:100BC300E49BFBE49CFCE499C6CC18C6CB18C6CACC
:100BD30018C6F922E4C9C608CAC608CBC6D333036C
:100BE30008CCC63392F0C3947F402E94184019C9A1
:100BF300B90704CACBCC225025C309CA33CACB33A5
:100C0300CBCC33CC33D9F422F4600DC9CCC313CB92
:100C130013CBCA13CAD9F6CC22E4FCFBFA2214FC88
:100C2300FBFA22C0E074F2120E7CA2AFE433FED2D0
:100C3300AF900716E05589600FE589FA7900121F16
:100C430030900716E0F45289C2C5EEA2E092AF7F5E
:100C530001020EDBC0E074F2120E7CA2AFE433FE9D
:100C6300D2AF900717E0558A600FE58AFA7901122F
:100C73001F30900717E0F4528AC2EB80CDC0E074B6
:100C8300F2120E7CA2AFE433FED2AF900718E05508
:100C93008B600FE58BFA7902121F30900718E0F48E
:100CA300528BC2E880A4080808EAC0E0EBC0E086E3
:100CB300F0E7A4FA180986F0E7A42AFA180986F0DF
:100CC300E7A42AFA180986F0E7A42AFA1986F0E7B6
:100CD300A4FBE5F02AFA190886F0E7A42BFBE5F05C
:100CE3003AFA190886F0E7A42BFBE5F03AFA18184C
:100CF3000986F0E7A4C5F02BFBE43AFA1908E7C527
:100D0300F0C6A426F6E5F03BFBE43AFA1886F0E7D2
:100D1300A4F6E5F00826F6E43B08F6E43A08F6D034
:100D2300E0FBD0E0FA22080808E630E7111215DDEF
:100D3300120D41080808C64480C61818182218184E
:100D430018E9799EC608CAC608CBC608CCC6C370C4
:100D5300207996CACBCC7019798ECBCC7013798657
:100D6300CC700EF9802ACA33CACB33CBCC33CC3305
:100D73001930E7F2CCCBCA3350147004EA30E00DDB
:100D8300E4CA3ACACB3BCBCC3CCC500209C3E913EF
:100D9300C6CC182313C6CB18C6CA18C6F922E4CF8B
:100DA300C0E0E4CEC0E0E4CDC0E0E4CCC0E075F048
:100DB30020E626F608E633F608E633F608E633F6C9
:100DC300181818EC33FCED33FDEE33FEEF33FFC39D
:100DD300EC9709ED9709EE9709EF97191919400F49
:100DE300FFEC97FC09ED97FD09EE97FE191906D55F
:100DF300F0BFECF709EDF709EEF709EFF719191949
:100E0300D0E0FCD0E0FDD0E0FED0E0FF222518C505
:100E130082C0E0E51934FFC583C0E0E518C39582BD
:100E230024F810AF088583198582188008858319F3
:100E3300858218D2AFCEF0A3E520F0A37808E608A8
:100E4300F0A3DEFAEFF0A3E58124FAF8E608F0A3B5
:100E5300E608F0A3E608F0A30808E608F0A3E6080E
:100E6300F0A315811581D0E0FED0E0F8158115813E
:100E73001581E8C0E0EEC0E022C0D02518C582C0CD
:100E8300E0E51934FFC583C0E0E518C3958224F378
:100E930010AF088583198582188008858319858298
:100EA30018D2AFC8F0A3E9F0A3EAF0A3EBF0A3795B
:100EB30008E709F0A3D8FAECF0A3EDF0A3EEF0A352
:100EC300EFF0A3D0E0F0A3D0E0F0A3D0E0F0A3E5EF
:100ED30020F0A3E5F0F0A322851983851882E0C0F2
:100EE300E0A3E0F9A3E0FAA3E0FBA37808E0F608A7
:100EF300A3DFFAE0FCA3E0FDA3E0FEA3E0FFA3E091
:100F0300C0E0A3E0C0E0A3E0F5D0A3E0F520A3E0B8
:100F1300A3F5F010AF0885831985821880088583AF
:100F230019858218D2AFD082D083D0E0F8D0E032D6
:100F33001215E0181818120DA11216AF191919225B
:100F43001216AF191919080808E618181820E7E04F
:100F5300120DA11215E018181822090909E7191929
:100F63001920E7DC080808E618181820E703020D23
:100F7300A11215E0181818120DA11215E01818186F
:100F83001216AF191919221217B0B90003020FC9AB
:100F9300E4900401783379158002F0A3D8FCD9FAE0
:100FA3007A337B1890008678CF79018015E493A378
:100FB300AD82AE838A828B83F0A3AA82AB838D82B8
:100FC3008E83D8E9D9E77582BD7583EC7406121454
:100FD3000875827A75833574001214080C75F01045
:100FE3008E1A8F1B85821F85831E85188285198320
:100FF300E0CEA3E0CF851F82851E83EBC9EAC8ED4F
:10100300CBECCAC3E833C8E933C9EA33CAEB33CB01
:10101300C3EA9EF51DEB9FF51CB35004AB1CAA1D40
:10102300EC33CCED33CDD5F0DAAE1AAF1B22121769
:1010330010601C12171F60171217CE70071217C506
:101043007001D322C0D01217C57006D0D0B322C30B
:101053002233D0D0501430E0F6C3E7960809E79660
:101063000809E7960809E796B32220E0D5E6970832
:1010730009E6970809E6970809E697B322D083D0D3
:1010830082ECC0E0EDC0E0E493A3FCE493A3FDEDA8
:101093004C600D1211A4EC24FFFCED34FFFD80EF36
:1010A300E493A3FCE493A3FDED4C600D1212ABECAF
:1010B30024FFFCED34FFFD80EFD0E0FDD0E0FCE445
:1010C30093A3C0E0E493C0E022121710601B121731
:1010D3001F60161217CE70071217C5600CB322C01B
:1010E300D01217C57005D0D022C32233D0D05013ED
:1010F30030E0EBC3E7960809E7960809E796080985
:10110300E7962220E0E4E6970809E6970809E697C0
:101113000809E69722851983851882E0A3FEE0A3D8
:10112300F5207808E0A3F608DFFAE0A3FFE0A3C008
:10113300E0E0A3C0E0E0A3C0E0E0A3C0E0E0A3C020
:10114300E010AF0885821885831980088582188589
:101153008319D2AFD083D08202140ED083D082E918
:10116300C0E0E493A3C386F0C5F095F0F908E493D7
:10117300A386F0C5F095F0700BE493A3C3994005E3
:10118300E9048002A3E475F002A42582F582E5F068
:101193003583F583D0E0F9E493A3C0E0E493C0E0A2
:1011A30022C0E0C3E49396087401939618400FE4B9
:1011B3009366700808740193661870007019A3A3EE
:1011C300C3E49396087401939618A3A3400DD0E04B
:1011D300D0E0D0E00210BCA3A3A3A3A3A3D0E0223A
:1011E300C0E074F2120E7CC2D990187BE0C3940065
:1011F300A2D265D0334005E0F91222CC7F01020E62
:10120300DBC0E074F2120E7CC2DC90187DE0F9C3FF
:101213009400A2D265D03340031222CC80DE740442
:10122300800474028000CCC0E0EDC0E0E518C39CEC
:10123300CCAD1950011D10AF068C188D1980068C8A
:10124300188D19D2AF12136AD0E0FDD0E0FC2274DE
:10125300028000CCC0E0EDC0E0E518C39CCCAD1922
:1012630050011D10AF068C188D1980068C188D192E
:10127300D2AF121326D0E0FDD0E0FC22121710608B
:101283002512171F60201217CE70030217C5080816
:1012930008E76670101819E766700A1819E7667090
:1012A300041819E76622F422C0E0C0F088F0E49342
:1012B3006670080874019366187000A8F0A3A37001
:1012C3000BD0F0D0E0D0E0D0E00210BCA3A3D0F06C
:1012D300D0E022D083D082CCC0E0E493A360061296
:1012E30013AB1470FAE493A3600612150E1470FA8C
:1012F300D0E0FCE493A3C0E0E493C0E022C008C3C1
:10130300E096F50808A3E096420808A3E096420891
:1013130008A3E0964208A2D265D033E5087001D352
:10132300D00822CAC0E0E493A3C582CCC582C5839A
:10133300CDC583F0A3C582CCC582C583CDC583DA71
:10134300E5D0E0CA22A2E792D65002F40430F706B1
:1013530063F0FF05F0B3400384800384F40430D6C4
:101363000563F0FF05F022CAC0E0E0A3C582CCC547
:1013730082C583CDC583F0A3C582CCC582C583CD89
:10138300C583DAE6D0E0CA22C0E0C0D0C082C08301
:1013930075AF00900754E02401F0A3E03400F0D0CF
:1013A30083D082D0D0D0E032C0E0E493A3D39C506A
:1013B30010E493A3C39C400AD0E0D0E0D0E0021233
:1013C300F3A3A3A3D0E0227009080808226016182B
:1013D3001818C6C333C608C633C608C633C608C6FC
:1013E30033C6D5E0EA22C008C3E096F50808A3E0B7
:1013F30096420808A3E096420808A3E096450870C1
:1014030001D3D00822C09FF59FE473D09F22D083DD
:10141300D082C09FE493C0E0740193C0E074029350
:10142300F59F227404800A74038006740280027498
:1014330001C0E0F404121441D0E012175B22251816
:10144300F58210AF08F518400C15198008F51840FF
:10145300021519D2AF8519832200C0D0251810AF09
:1014630008F518500C05198008F51850020519D213
:10147300AFD0D022C0E0C0D0E8C0E0A8A8D2AFC2AD
:10148300C7E8A2E792AFD0E0F8D0D0D0E032BB01FA
:1014930002E722C082C08389828A83BB0003E08083
:1014A30002E493D083D082226017080808C6A2E71B
:1014B30013C618C613C618C613C618C613C6D5E076
:1014C300E9226016080808C6C313C618C613C6184F
:1014D300C613C618C613C6D5E0EA222518F8E435A4
:1014E30019F9222518FAE43519FB222518FCE435ED
:1014F30019FD22C3E0C696F608A3E0C696F608A334
:10150300E0C696F608A3E0C696F622C0E0E493A3ED
:101513006C7009D0E0D0E0D0E00212F3A3A3D0E0D6
:1015230022251810AF08F518400C15198008F51876
:1015330040021519D2AF22C3E09608A3E09608A390
:10154300E09608A3E096A2D265D03322E766701036
:101553000809E766700A0809E76670040809E76680
:1015630022E066701008A3E066700A08A3E06670C4
:101573000408A3E06622181818E60846087009E66E
:1015830026087005E633F4220822C3E49396087410
:10159300019396087402939608740393962219197B
:1015A30019E70947097009E727097005E733F422AA
:1015B3000922C3E096F008A3E096F008A3E096F0B2
:1015C30008A3E096F022C3E697F60809E697F60823
:1015D30009E697F60809E697F622181818E4C39661
:1015E300F608E496F608E496F608E496F622E02672
:1015F300F608A3E036F608A3E036F608A3E036F6CD
:1016030022E627F60809E637F60809E637F6080959
:10161300E637F622E493F608740193F6087402930E
:10162300F608740393F622E657F60809E657F60818
:1016330009E657F60809E657F622E056F008A3E054
:1016430056F008A3E056F008A3E056F022E647F66A
:101653000809E647F60809E647F60809E647F622C9
:10166300700422600D18C6C333C608C633C6D5E05E
:10167300F41822E667F60809E667F60809E667F64E
:101683000809E667F622E026F008A3E036F008A38F
:10169300E036F008A3E036F022E056F608A3E05661
:1016A300F608A3E056F608A3E056F622E4C397F73C
:1016B30009E497F709E497F709E497F722600D081F
:1016C300C6A2E713C618C613C6D5E0F322C6F4C6EE
:1016D30008C6F4C608C6F4C608C6F4C622C3E09614
:1016E30008A3E09608A3E09608A3E09622C3E79632
:1016F3000809E7960809E7960809E7962275D000D6
:1017030075813F75180175190400020F8AE60846B2
:1017130008C3134608336002E633F422E709470996
:10172300C3134709336002E733F422600C08C6C3CE
:1017330013C618C613C6D5E0F422E6F008A3E6F0F4
:1017430008A3E6F008A3E6F022E0F608A3E0F60813
:10175300A3E0F608A3E0F622CAC0E0E6F0A308DAA5
:10176300FAD0E0FA22E0FCA3E0FDA3E0FEA3E0FF51
:1017730022EAF0A3EBF0A3ECF0A3EDF022E0FAA34E
:10178300E0FBA3E0FCA3E0FD22E8F0A3E9F0A3EA79
:10179300F0A3EBF022ECF0A3EDF0A3EEF0A3EFF057
:1017A30022E0F8A3E0F9A3E0FAA3E0FB22E5C754A3
:1017B300F84401F5C77901222518F582E43519F5B6
:1017C3008322E72719471947194722E6261846189F
:1017D30046184622C2AF75D69F020000221214118A
:1017E30078A205121411E2A20512141148A40512DD
:1017F3001411108807121411008005121411598056
:1018030005121411B7800512141149810512141120
:10181300A58105121411DE84051214110C8705121B
:1018230014113A88051214111DD90612141187D9FF
:1018330006121411A8D906121411E6D906121411AE
:101843002BDA0612141151DA061214115ADA06129F
:10185300141108DB061214116CDB06121411D48266
:10186300071214114187071214115C870712141110
:1018730013A004121411F2A004121411F2A1041201
:101883001411C6A204121411A8A504121411FAA665
:1018930004121411B0A704121411AFA804121411E6
:1018A300CCA90412141149BF0512141157BF051214
:1018B300141168C00512141118C105121411A0C225
:1018C3000512141160C5051214113AC6061214113B
:1018D300CCC60612141110C8061214112CC8061215
:1018E3001411028207121411138207121411B18208
:1018F30007121411BC8207121411FDFF03121411F5
:10190300CF8807121411218407121411318407128E
:101913001411468407121411AC84071214110080A9
:1019230007121411838007121411E980071214118E
:10193300F3FD051214112EFE051214118AFE051271
:101943001411E2FE0512141169FF05121411A5FF0B
:1019530005121411EDFF01121411FDFF01121411F0
:101963003FBB0612141195BB06121411E4BB0612F9
:10197300141111BC0612141167BC061214118387CB
:1019830007121411E7E30612141131E406121411BD
:10199300C7E4061214114DE5061214117EE5061272
:1019A300141196E5061214110AE60612141120E624
:1019B3000612141133E6061214113DE60612141131
:1019C30016AB0412141162B00412141194B0041271
:1019D3001411C0B00412141168B1041214115EB4CE
:1019E300041214113BEB04121411A0EB0412141192
:1019F30050EC041214111DED0412141173EE0412B1
:101A030014115DEF0412141164F00412141144F262
:101A13000412141177F204121411E1F204121411D6
:101A230008F3041214116EF404121411E0F40412F6
:101A3300141115F50412141129F5041214119FF54C
:101A43000412141186C60512141101C805121411CB
:101A530020C905121411F5CA0512141121850612A5
:101A630014114D8506121411BE8706121411FE8738
:101A7300061214113E88061214115288061214110C
:101A83006B88061214115C8906121411018A06125E
:101A93001411158A06121411A6F606121411CAF6A9
:101AA30006121411E3F60612141115F70612141197
:101AB30045F70612141172F706121411D4F7061221
:101AC3001411E3F706121411EDF706121411FAF7C5
:101AD30006121411BCDE06121411DCDE06121411F8
:101AE3001BDF0612141136DF0612141155DF06121E
:101AF3001411BBDF06121411C4DF0612141121E006
:101B03000612141145E00612141106E1061214110F
:101B130013E10612141124E1061214112C86071284
:101B230014114486071214117086071214118E9D26
:101B330006121411E89E06121411F69E06121411D1
:101B4300099F061214111E9F06121411339F0612C9
:101B53001411469F06121411BA9F061214111FA0E6
:101B630006121411C1A00612141185A10612141134
:101B730095A106121411A4A106121411517F00128B
:101B83001411757F001214119D7F00121411C57F6B
:101B930000121411AEE806121411D5E8061214113E
:101BA300F3E80612141166E906121411E9DB0612B2
:101BB300141102DC061214110EDC0612141122DCBD
:101BC3000612141140DC061214114ADC0612141119
:101BD30054DC0612141167DC06121411EDDC061234
:101BE300141162DD0612141191DD06121411DFDDEA
:101BF300061214112EDE0612141149DE06121411F8
:101C030053DE0612141164DE06121411A7DE061247
:101C13001411918507121411369305121411609350
:101C2300051214117D9305121411909305121411CA
:101C3300A693051214110494051214113C94051271
:101C43001411309805121411759905121411A899DD
:101C5300051214110B9A051214116B9B0512141122
:101C6300939B05121411A89B05121411B89B05121E
:101C73001411FC9B05121411579C05121411679C37
:101C83000512141138FD0612141152FD0612141117
:101C93007AFD0612141193FD06121411B7FD0612F4
:101CA3001411D5FD06121411ECFD061214111AFEBF
:101CB3000612141135FE06121411B98607121411F7
:101CC300B3C206121411C3C206121411C8C30612FA
:101CD3001411FAC30612141120C40612141143C4BA
:101CE300061214115AC40612141194C406121411C4
:101CF300F9C4061214113BC5061214117AC5061253
:101D03001411ABC506121411E2C506121411A2D4A4
:101D13000512141178D505121411A3D50512141147
:101D2300C0D505121411BBD605121411FDD6051228
:101D330014116BD705121411BDD7051214112CD829
:101D43000512141163D90512141160DA0512141166
:101D530011B30612141166B306121411E6B3061278
:101D63001411F9B30612141120B406121411C3B4DA
:101D730006121411A4B506121411C7A505121411E5
:101D8300F2A505121411BDA605121411FAA6051227
:101D930014118BA70512141104AB05121411BCAC5A
:101DA3000512141100800312141140800312141140
:101DB3004182031214113285031214115486031243
:101DC3001411BE8903121411328A03121411CC8A1E
:101DD30003121411238B031214118B8B031214118E
:101DE300DB8B03121411098C031214110C8C0312D4
:101DF30014111C8C031214112F8C031214117A8CDE
:101E030003121411378E031214119C8E0312141132
:101E1300EF8E031214118B8F0312141117900312F8
:101E23001411169203121411BF9303121411869501
:101E3300031214117296031214111E980312141133
:101E4300ABFA06121411C5FA0612141107FB061297
:101E5300141135FB061214114FFB0612141168FB03
:101E6300061214119BFB06121411BFFB0612141168
:101E730084ED05121411B5ED0512141109EE0512C6
:101E83001411D9EE051214110BEF0512141138EFCA
:101E93000512141189EF05121411B3EF0512141171
:101EA300D7EF05121411FDEF051214117FF005127F
:101EB300141109F1051214113AF10512141180F1EC
:101EC300051214119EF105121411C2F10512141119
:101ED300E2F10512141118F20512141177F205122A
:101EE300141199F205121411F8F20512141107F3E3
:101EF3000512141140F305121411F3B6051214114F
:101F03002DB7051214116CB80512141198B90512E6
:101F1300141122BF05121411148F06121411CD8F40
:101F2300061214110E90061214117D90061214114C
:101F3300F3FE0312141164FF03121411C6FF0312FC
:101F430014112ED6041214115ED70412141173D86F
:101F530004121411B3D9041214110DDA041214115A
:101F63004BDA0412141159DA0412141189DA041227
:101F730014111ADB0412141176DC04121411A2DDFD
:101F8300041214113CDF04121411B0E004121411F2
:101F93009BC906121411FDC90612141136CA061282
:101FA30014112FCC06121411298A061214116C8AEB
:101FB30006121411A28A06121411C98B06121411E7
:101FC3005D8D06121411C38D06121411F68E0612BE
:101FD3001411B9F504121411D6F6041214114CF7A6
:101FE3000412141145F80412141191F80412141177
:101FF3000CFC04121411ECFC0412141141FD041224
:10200300141196FD0412141176FE0412141142F5F4
:10201300061214117FF506121411AEF506121411EF
:10202300C2F506121411DDA106121411EFA2061255
:102033001411D2A306121411F3A306121411BCA493
:10204300061214115EA5061214118FA5061214119F
:102053000FA6061214115EDB05121411C0DB051264
:1020630014115FDC05121411EADD05121411E8E006
:1020730005121411FEE00512141104F806121411CE
:1020830016F8061214112AF9061214112DF9061264
:102093001411F2FB0612141128FC0612141142FC4F
:1020A3000612141184FC0612141194FC0612141166
:1020B3002EFD06121411A7CD05121411B1CD051270
:1020C3001411EBCD0512141154CE0512141171CE57
:1020D3000512141113CF051214111CCF051214117C
:1020E30061CF051214118ACF0512141197CF05126F
:1020F300141108D00512141193D005121411E1D054
:10210300051214111FD10512141184D105121411D3
:10211300A7D1051214111ED20512141175D205127E
:102123001411B0D205121411E5D205121411F7D20D
:102133000512141109D30512141128D30512141111
:1021430031D305121411ECD30512141138D405122E
:10215300141176D405121411EC93061214112C9554
:10216300061214114F9506121411609506121411DC
:102173005F97061214117F9706121411B488071281
:10218300141145D30612141189D306121411D1D395
:1021930006121411B7D50612141146D606121411DD
:1021A300B68407121411AEDB03121411D2DC03122E
:1021B30014110CDD03121411B6DE03121411E0DE48
:1021C3000312141155E10312141195E103121411B2
:1021D3002BE303121411C8E3031214111AE40312BC
:1021E3001411BDE403121411F5E40312141137E5BD
:1021F30003121411A6E603121411F4E703121411C7
:1022030025EA0312141153EA031214117AEA031292
:10221300141183EA03121411D3EA0312141165EBA8
:102223000312141194EE0312141117EF0312141175
:10223300EA7F001214113BB70612141151B70612AC
:102243001411F5B70612141134B80612141151B84B
:102253000612141182B806121411CFB80612141103
:1022630002B9061214113DB90612141132BB06123B
:102273001411C0E10512141166E305121411A7E449
:1022830005121411BFE40512141137A60612141116
:102293006EA706121411CDA8061214117FAE0512F3
:1022A3001411A2AF05121411A9B00512141109B229
:1022B300051214112BB30512141101B405121411D4
:1022C300D1EA061214117FEB0612141100800412D6
:1022D3001411C58004121411D080041214118181C9
:1022E30004121411E08104121411EE830412141168
:1022F3005E84041214116386041214119C86041262
:1023030014114B8904121411738904121411F589E1
:1023130004121411708A04121411FA8B041214118A
:10232300898C04121411078D0412141117920412CC
:1023330014114FF30512141176F305121411D1F58C
:1023430005121411F8F5051214114DF605121411A6
:102353007FF705121411FBF70512141152E106124F
:1023630014116AE106121411B5E206121411BCE24B
:1023730006121411E5E20612141102810712141158
:102383006181071214119F8107121411E081071252
:102393001411C3F805121411E9F80512141129FADE
:1023A300051214111EFB0512141145FB051214111D
:1023B300DEFB0512141132FC051214114DFD05123A
:1023C3001411A3E70512141145E80512141165E968
:1023D30005121411B7EA051214116BEC051214114E
:1023E30011B60412141165B6041214118FB7041236
:1023F3001411BBB804121411A9B90412141145BC69
:1024030004121411FCBD0412141147BE041214115A
:1024130055C00412141127BF061214117ABF0612F5
:102423001411FDBF061214117CC2061214115AF9BD
:1024330006121411D4F906121411EFF9061214112D
:102443009DEE06121411B2EF061214111AF00612C1
:10245300141171F006121411BCF0061214110CF1D0
:102463000612141127F106121411B4F306121411F3
:102473000FF4061214110BF50612141150E606128E
:102483001411B9E6061214112FE70612141157E7B7
:102493000612141188FF06121411D2FF061214112A
:1024A30056FA01121411B3FA0112141191FB01121D
:1024B300141100FC0112141124FC011214110BFD60
:1024C300011214116BFD011214111CFE01121411DF
:1024D30093FE01121411358807121411488807124C
:1024E300141168FE0612141177FE06121411D7FE9A
:1024F300061214115988071214115F880712141158
:1025030065880712141191CB04121411FCCB041229
:102513001411D7CC0412141110CE041214117FCE4F
:10252300041214112DCF041214110DD0041214111E
:10253300FCD0041214111FD20412141187D40412F4
:1025430014110080021214110C80021214116E80F7
:10255300021214117880021214110B810212141149
:1025630047810212141103820212141116820212FD
:102573001411668202121411F582021214112B83B4
:1025830002121411AD83021214115C85021214118C
:10259300308702121411168802121411688902126C
:1025A3001411F49E03121411278D02121411C48DF9
:1025B300021214116C92021214115A930212141182
:1025C300F89302121411249402121411C0940212EB
:1025D3001411D59402121411F994021214115F9577
:1025E300021214117C9502121411A69502121411F1
:1025F300239702121411449702121411CA9702125C
:102603001411709802121411B798021214112A9916
:1026130002121411B699021214111A9A0212141109
:102623007A9A02121411109B021214118B9B02123C
:102633001411BE9B0212141116A205121411829DCD
:1026430002121411F29D02121411A19E021214110E
:10265300F79F021214118FA002121411FBA0021291
:1026630014113EA302121411CAA402121411F5A4E8
:1026730002121411DBA60212141171A80212141112
:102683007AA902121411399204121411F09204124D
:102693001411F79304121411759404121411B795BD
:1026A30004121411D89504121411909604121411E3
:1026B3003B97041214111B9B04121411379D04122F
:1026C30014119E9E04121411FD860712141108D9C9
:1026D3000212141160D902121411E6D90212141154
:1026E300F8DA0212141145DB021214112BDC021268
:1026F300141142DC0212141194DC02121411CCDC0A
:1027030002121411DFDC0212141135DD021214114E
:102713008EDD02121411A6DD0212141116E002124C
:102723001411ADE002121411D7E0021214110FE1DB
:102733000212141135E3021214117BE30212141175
:10274300C5E30212141199E402121411DAE402121D
:102753001411FDE40212141144E50212141166E58A
:1027630002121411E7E50212141174E60212141195
:10277300CEE60212141116E7021214118BE80212AC
:10278300141107EB0212141194EB02121411C0EC92
:1027930002121411FBEC02121411C8ED02121411EF
:1027A30008EE021214110BEE0212141115EE0212AE
:1027B300141128EE02121411A9EE02121411DFEE05
:1027C300021214110BEF0212141132EF0212141140
:1027D30056EF02121411EDEF0212141106F0021259
:1027E300141139F00212141159F00212141196F057
:1027F30002121411CDF002121411CCF102121411B1
:10280300FFF20212141176FF0412141182FF041254
:102813001411C8FF04121411FAFF03121411FBB1AF
:10282300031214111EB203121411F5B20312141180
:102833003EB30312141196B303121411F0B303122F
:1028430014113CB403121411B2B40312141140B5A1
:1028530003121411B8B503121411FBB503121411AA
:10286300D8B9031214111FBC0312141152BC031262
:102873001411D0BC0312141155BD031214112DBE33
:102883000312141157BF0312141142C0031214117F
:102893001FC1031214115BC203121411FFC30312ED
:1028A300141191C40312141198C60312141164EF86
:1028B3000312141104F0031214116EF00312141115
:1028C30015F10312141179F103121411ACF203126E
:1028D3001411D2F3031214114BF40312141123F63F
:1028E30003121411C3F60312141166F70312141121
:1028F300C5F70312141180F80312141146FA0312D8
:102903001411E9FB0312141195FC03121411AAFD0F
:102913000312141128C703121411A0C703121411B0
:10292300E8C7031214112CC80312141175C803123B
:102933001411BFC803121411F4C80312141172C97D
:1029430003121411CCC90312141125CB0312141151
:10295300AECB031214110ACC0312141124CC0312AC
:1029630014114BCC03121411A3CC031214110DCE6A
:10297300031214112CCE0312141154CF0312141189
:10298300D1CF031214113ED003121411A0D003129D
:10299300141150D10312141122D3031214110DD4A4
:1029A3000312141107D5031214110DD603121411B7
:1029B30029D70312141137D70312141110D8031295
:1029C3001411B0D803121411F4D80312141109D935
:1029D300031214111ADA03121411BDDA03121411BB
:1029E30015DB031214114FD60612141188D70612E1
:1029F300141145D806121411A9D80612141121D0A6
:102A0300061214113CD00612141180D006121411B0
:102A1300A6D006121411CCD006121411E4D006125B
:102A2300141147D1061214115CD1061214117ED26F
:102A33000612141187D20612141190D20612141121
:102A430099D206121411A3D2061214118FAA0612D8
:102A530014116FAE0612141174AE0612141176AE71
:102A6300061214112AED0612141178880712141194
:102A7300288507121411738607121411BB870712D6
:102A83001411DDAE061214118B8307121411B583D2
:102A93000712141128F206121411E78707121411F2
:102AA300968807121411A4FF02121411DC85071271
:102AB3001411E6CC0612141167D601121411BED6F6
:102AC300011214112AD701121411B6D701121411CD
:102AD3006CD801121411B4D801121411CDD80112FB
:102AE3001411F0D80112141112D90112141150D972
:102AF300011214119FD901121411CAD90112141110
:102B030028DA01121411CFDA0112141177DB011242
:102B13001411F3DB01121411C0DC011214110CDDCA
:102B23000112141194DD01121411CDDD01121411DF
:102B33005EDE011214116FDE01121411E1DE0112C7
:102B430014117ADF01121411E4DF01121411D4E01D
:102B530001121411F9E001121411F6E1011214111A
:102B630003E2011214110CE201121411F5E3011234
:102B7300141111E501121411A2E50112141113E647
:102B830001121411EDE701121411B8EB0112141123
:102B9300CCEB01121411DCEB01121411E6EB011260
:102BA3001411EFEB01121411F8EB0112141102ECE2
:102BB3000112141131EC011214115FEC0112141102
:102BC3006AEC011214118EEC01121411B2EC011211
:102BD300141124ED011214116DED0112141189ED7C
:102BE30001121411FAED0112141146EE011214111F
:102BF3008FEE01121411CDEE011214114EEF0112DA
:102C0300141119F101121411B8F10112141180F207
:102C1300011214110CF50112141161F501121411B2
:102C230089F501121411BCF60112141101F70112F6
:102C3300141156F70112141104F801121411A9F812
:102C430001121411DEF8011214117EF9011214118C
:102C5300FAF9011214113E85011214117085011243
:102C63001411A485011214115887011214112C8810
:102C7300011214118B8801121411A189011214116C
:102C8300ED89011214118A8C01121411FF8E0112A5
:102C930014114B9001121411E39001121411EF90CF
:102CA300011214113891011214116B9101121411B4
:102CB300F791011214110993011214114A9401128C
:102CC3001411499501121411739501121411DE9513
:102CD30001121411379601121411AA96011214113C
:102CE300E09801121411669A01121411519B0112FA
:102CF30014119F9C01121411D79E01121411CEA11D
:102D030001121411DDA10112141171A20112141187
:102D13001CA3011214115FA301121411A8A3011221
:102D23001411F8A30112141165A401121411D1A4F2
:102D330001121411EDA4011214111CA50112141196
:102D43005BA50112141143A601121411F2A601127C
:102D5300141169A9011214119BAA011214116AAB6F
:102D630001121411ECAB0112141138B00112141139
:102D730067B001121411C2B001121411F5B001129F
:102D8300141150B1011214116CB101121411CDB10F
:102D9300011214111DB201121411CCB2011214113B
:102DA3008FB30112141157B401121411A3B60112F7
:102DB30014112FB80112141186B901121411A2BAF9
:102DC30001121411A5BA01121411D4BA011214116B
:102DD300C3BC011214118CBD01121411CDBD01121B
:102DE300141123BF0112141199BF01121411CCBF86
:102DF3000112141130C00112141151C20112141125
:102E0300B0C20112141186C3011214119AC3011224
:102E13001411AEC301121411DBC3011214110BC43C
:102E230001121411AFC501121411ACC60112141111
:102E3300FAC60112141121C701121411FCC70112A1
:102E43001411A2C80112141128CA011214116FCA55
:102E530001121411DCCA0112141131CC0112141124
:102E6300DACC011214110ECD0112141126CD011268
:102E73001411C9CD0112141145D001121411EDD151
:102E83000112141111D2011214112FD201121411B3
:102E9300FBD20112141149D601121411F23D001292
:102EA3001411243E00121411A44200121411F3420F
:102EB30000121411394300121411DC4300121411CF
:102EC300414400121411854400121411EC45001200
:102ED3001411184700121411154B00121411944BBE
:102EE30000121411BA4C001214111D4D00121411CA
:102EF300694E001214110151001214118E51001267
:102F03001411985100121411C05100121411885257
:102F1300001214111D530012141146530012141100
:102F2300735300121411C855001214119556001250
:102F33001411D456001214115657001214110158CB
:102F4300001214113358001214117E580012141178
:102F5300B7580012141106590012141162590012C5
:102F63001411E45900121411495A00121411C15AD0
:102F7300001214116A5C00121411625D0012141124
:102F8300A35E00121411F7610012141153640012AE
:102F930014110C65001214115465001214113567D5
:102FA30000121411706700121411796700121411C2
:102FB3008267001214118D6700121411AC6700129E
:102FC30014115F6800121411BC6800121411C66852
:102FD30000121411D068001214111C69001214118C
:102FE300646900121411686A00121411016B001253
:102FF3001411C86B00121411F26C001214111D6E1F
:1030030000121411136F001214112B6F00121411FC
:103013005F6F001214117D6F00121411C56F00123F
:103023001411FE6F00121411B57000121411767191
:1030330000121411E97100121411657200121411B7
:10304300017300121411277400121411E374001297
:103053001411837500121411707600121411C876BE
:10306300001214118E7700121411B177001214118B
:10307300C678001214111179001214116D7900121F
:103083001411D57900121411F97900121411217A4F
:1030930000121411667A001214118A7A00121411A4
:1030A3000E7B00121411F77B001214113C7C0012EA
:1030B3001411657C00121411037D001214116E7D2E
:1030C300001214117C7D00121411A87D001214113A
:1030D300897E00121411BBE004121411F3E00412F0
:1030E300141114E10412141156E104121411BAE17B
:1030F30004121411C4E104121411D4E104121411C2
:103103000BE204121411B4E5041214117CE7041247
:10311300141160E90412141102EA041214118CEA66
:1031230004121411E4AE0212141148AF0212141166
:10313300A6AF02121411F1AF021214110CB0021255
:10314300141133B00212141150B0021214115CB0F6
:1031530002121411EDB10212141106B2021214116B
:1031630082B20212141195B202121411A5B2021204
:10317300141149B302121411B5B402121411C8B5D3
:103183000212141168B60212141172B6021214114B
:10319300F1B60212141102B70212141141B702124E
:1031A30014116FB7021214113CB80212141193B820
:1031B30002121411CCB80212141122B90212141102
:1031C30040B9021214118EB90212141159BA021223
:1031D3001411A7BA02121411F4BA0212141177BB14
:1031E30002121411A1BB02121411D7BB0212141143
:1031F300E6BB0212141145BC02121411BDBC02122B
:103203001411FEBC021214114EBD0212141179BD29
:103213000212141193BD02121411ADBD0212141146
:1032230082BE021214118CBE02121411C7BE021206
:103233001411D7BE02121411E0BE0212141131BFD1
:103243000212141145BF0212141167C002121411A5
:103253007CC0021214110FC10212141183C1021295
:10326300141128C20212141133C20212141193C38F
:1032730002121411AFC302121411FBC30212141170
:1032830069C4021214119BC402121411B5C40212B0
:103293001411F7C4021214114AC702121411E2C71F
:1032A3000212141159C802121411B6CA02121411CF
:1032B300CECA02121411D1CA02121411DDCA0212AB
:1032C3001411F1CA02121411F9CA0212141130CBEB
:1032D3000212141124CC02121411AECC02121411D6
:1032E30030CD02121411B0CD0212141187CE021286
:1032F3001411A9CE0212141142CF021214119FCF3E
:1033030002121411A2CF0212141111D002121411BD
:103313005DD10212141170D202121411FBD20212E7
:1033230014110ED402121411D3D40212141104D5A1
:10333300021214112AD50212141133D502121411D8
:1033430062D50212141112D602121411C2D602123D
:10335300141135D702121411D8D7021214114BD8F5
:10336300021214118AD802121411D3D802121411A2
:103373005F9E03121411129E03121411909D0312E7
:103383001411159D03121411959C031214114B9CD7
:1033930003121411EF9B031214119E9B03121411B9
:1033A300619B031214111B9B03121411E09A031265
:1033B3001411D69A031214119FA005121411689FB9
:1033C30005121411B99A03121411E199031214117D
:1033D300699E05121411209E05121411659903129A
:1033E3001411109B061214110D9A061214119599BB
:1033F30006121411B59806121411CBFE0212141101
:10340300F1FD0212141127FD0212141196FB021290
:1034130014115FFB0212141131FB02121411E5FAAD
:10342300021214114EFA02121411BEF902121411EF
:1034330098F9021214114DF90212141117F902121C
:1034430014119AF80212141135F802121411E4F748
:10345300021214110CF7021214117CF60212141149
:1034630030F602121411ABF50212141166F50212B2
:1034730014114AF502121411979C05121411F2F358
:103483000212141190B00312141165AD031214113A
:10349300EDAA03121411DBA8031214119FA803123F
:1034A300141199A70312141141A503121411CDA4E9
:1034B30003121411C4F30212141191F30212141122
:1034C30015F3021214115F830612141192A303124F
:1034D3001411C48106121411D28006121411008033
:1034E3000612141146CB0412141151A30312141122
:1034F300EDCA04121411209C02121411B8CA04124A
:10350300141183CA041214114FCA04121411E2C90C
:1035130004121411CAC904121411A5C904121411F6
:1035230076C60412141149C40412141149C20412B8
:103533001411CFC10412141180C1041214113AC121
:1035430004121411DCC004121411DE8F05121411BD
:10355300EF9F03121411318F05121411428E0512BD
:103563001411A88C05121411688A05121411A1896B
:1035730005121411BE8B0200000080FBE4738F0060
:103583000100611687000100CD1835000400921870
:103593002500020096182600020098182700020052
:1035A3009A1828000100A41829000100A518840016
:1035B3000400A61886000100AA182A000100AB180F
:1035C3002B000100AC182C000100B0182D000800DE
:1035D30044162E000100B1182F000100B21830006C
:1035E3000100B31831000100B418320001004C1679
:1035F300330001004D1634000100B51836000100F8
:103603004E1638000100B61839000100AF188300C8
:103613000200CB18630001005E1664000100AD18C0
:1036230065000100AE186D0001005F16710008000F
:103633003C1666000100CA1843000100BB18440091
:103643000200BC1845000100BE1846000200BF1866
:1036530047000800561648000100C1184B0001003E
:10366300C21804000100CE18A1000100D1183700D0
:103673000100D01888000100CF183C0001004F164C
:103683003D000100B71849000200C318670001009C
:1036930060164D000200C5184E000100C7184F0008
:1036A3000200C8183E000100551651000100B81869
:1036B30052000100B91853000100BA185400010068
:1036C30050160000000000000000000020013985B2
:1036D30000000100200139850000020020013C8523
:1036E3000000030020013A850000040042016D80C0
:1036F3000000050042017E80000006004201A08018
:10370300000007002001AB800000100042018F8001
:10371300000011002001710A000000404201A08056
:103723000600000010110000070000003033000005
:103733000700100030330000070001402033000071
:10374300070002402033000008000000203300007F
:103753000A000000E23300000A00010018330000F1
:103763000C005500393300000C001C0042330000EC
:103773001100040042330000110043002333000012
:10378300110051001011000011005500101100002C
:10379300110067001811000011006F0018110000DC
:1037A300120055002001000014000E004222000008
:1037B30000040000210400000204000029040000AA
:1037C300030400002904000005040000290400008C
:1037D300000136360101000102010001030100016D
:1037E3000401060605020000070100340801000F6A
:1037F300090401010D0100FF0E080000170200007B
:10380300190100FF1A0100011B0100FE1C01000841
:103813001D0200001F010001200100012102000020
:103823002301000F240200002601000127010008E4
:10383300280200FF2A0100072B0102402C0100008F
:103843002D0100012E0100012F0100FF30010B1D8E
:10385300310800003A0100083B01000F3C01000160
:103863003D0100FF3E040000420400004604000046
:103873004A0400004E0400005204000056040000F5
:103883005A040000000000014A35024A35034A3554
:10389300044A3505181F06000007A01808C62200B1
:1038A30000000A00000BBA228CE2330D00000E4A1E
:1038B300350F4A3500000000000000000013DA2332
:1038C300000000154A1D164A1D97DA2398EC1719B4
:1038D3002C231A2C231BBC239C561A9D561A1E56A6
:1038E300239FC63420EE2421DC18229E1D23E233BD
:1038F300000000000000A69622A73C25A8842229E8
:103903009A242ADE19ABBA222CD024ADD024AEC41B
:10391300182F2218307423000000320000330000F7
:103923003400003500003600003700003800000086
:10393300202020202020202020282828282820205C
:103943002020202020202020202020202020202074
:1039530088101010101010101010101010101010EC
:1039630004040404040404040404101010101010CC
:1039730010414141414141010101010101010101A5
:1039830001010101010101010101011010101010D9
:103993001042424242424202020202020202020276
:1039A300020202020202020202020210101010209E
:1039B3006A007800822488248E246C00F0002E2470
:1039C30034243A246B00F00046244C248E246600F1
:1039D300F00046244C248E246700140058245E24EF
:1039E3006424690014006A2476247024EE22E80318
:1039F300F22310240A24640001000000000028249C
:103A030063000100000000002824620001000000A0
:103A13000000282461000100000000002824700039
:103A230001000000000028240103710301030103C6
:103A33000103010301032203020301031003000333
:103A43000003000300030003000300034203000319
:103A530024030603000300030403120325032303C3
:103A630025032303040304030003000300034403A7
:103A730000030003230300036503210035038103CF
:103A830000030503000300030003000325032303CE
:103A9300030271023001600211027002010202028C
:103AA30002028002100261023A00410063027302C3
:103AB3007202620243020002130238000002000293
:103AC30004021202000200020002000204020402C5
:103AD300370037003C0244020002390000020002B2
:103AE300650200023502810200020502820283029E
:103AF3000002010171010101010111010101310103
:103B0300010101018001100161013B001400630107
:103B130073017201620143010001130106013D01BA
:103B2300350004011201000100010001000104013C
:103B33000401330133013C01440132013600000129
:103B430000016501000135008101000105018201C9
:103B53008301000103007100300160001100700057
:103B630031022003500480001000610000001400A3
:103B7300630073007200620043000000130006003C
:103B8300000000000400120000000000000000001C
:103B930004000400370037003C024400000000002A
:103BA30000000000650000003500810000000500F2
:103BB30000008300000036000100060000000F0033
:103BC30000000000000000000000000003FFFF00F1
:103BD300000403FFFF0000FFFF0FF4010005C4040E
:103BE3000320000100000B000000000000000003A0
:103BF300010F0000000000000000000000000000B2
:103C030000000000000000000000000000000000B1
:103C13000000000032266E26F63460253E26742608
:103C23003E268026442660253E2674264A266025A5
:103C330050266025562660255C2660256226602571
:103C4300682660250000000000000000000000005E
:103C53000000000000000000000000000000000061
:103C63000000000000000000000000000000000051
:103C73000000C628130096280100C62802003C282D
:103C8300030042280400482805004E2806005A284D
:103C93003000722833007E283400842811008A28DB
:103CA3001400902815006C28FFFF00000A00000094
:103CB30002000000040000000800000010000000E3
:103CC3002000000040000000800000000001000010
:103CD30000020000000400000008000000100000C3
:103CE300002000000040000007ECFDFDFDECDCDCE3
:103CF300CCBCACAC9C9C8C7C7C6C6C5C5C5C4C4CA1
:103D03003C3C2C2C1C1C51001000005500100000E2
:103D130067001800006F0018000004004200004311
:103D23000023000003EAF5E5D5D5C5B5A59595852E
:103D33008575756565555545453535252515150530
:103D43000A0E2F02DE2E05F02E07E42E0CC62E0DD2
:103D5300D22EFF000000160F00000B150B0200020D
:103D6300220F3300000E01030507090B0D0F00029C
:103D73000406080A0C0D5A6967426565416C6C6953
:103D8300616E63653039303017181921301B1D1FE0
:103D93003000034A49434E181A250502000119163B
:103DA3001816161823030000393D3F373C3C362CC8
:103DB300442D303016181920231A1C1E300C0E0205
:103DC3000B040B0A0708000F020402010101010999
:103DD3000200BE040AE80300000E00E8031E0428E4
:103DE3000C1E05FF100804090821040303040A74C8
:103DF300F7120E10E990172CF09016E1E4F0122060
:103E03007A901735E4F0A3F090172DF0A3F0123059
:103E130070122080901671E4F0A3F0122A2E02593A
:103E23005D74EC120E1074D7121524EAFEEBFF54E6
:103E330080606890172CE0F91220F28A088B09EA57
:103E43004509604F7C0080010CEC75F003A4F8A9D0
:103E5300F0744328F582743D39F583E493F4602CC0
:103E6300E493F88508828B83E06870DCAA08EC751C
:103E7300F003A4F8744428F582743D39F583E49380
:103E8300C0E0740193F583D08212357FAA08AB0991
:103E93001220E0EEFAEF6480024286EF5420601EA7
:103EA300122F688A088B09EA4509600A122ED2AAE2
:103EB30008AB091220E0EEFAEF6420024286EEA27C
:103EC300E0501F9016E6E0640F70117900122EA8DF
:103ED300E96009901892121780122EC0EE64010255
:103EE300425BEF5440604F901882E0640670287480
:103EF3000BF09018AAE0F9750801750900750A001E
:103F0300750B009016D4E078081213CAAA08AB09FF
:103F1300AC0AAD0B122B549016511212217A007B6E
:103F23004090172CE0F9122254740412145CEEFA38
:103F3300EF6440024286EE5420700302425F7A200F
:103F43007B0090172CE0F9122260EA4B4C4D701A5B
:103F53009017311217A4E8494A4B700E750C01757E
:103F63000D00750E00750F008061750C00750D0056
:103F7300750E00750F0012226C8A088B098C0A8D4E
:103F83000B9017311217A4E8494A4B602A90173156
:103F930078081213E9400E750CFF750DFF750EFFBF
:103FA300750FFF801285080C85090D8C0E8D0F90FF
:103FB3001731780C1214F67401780C1214C5E50C41
:103FC300450D450E450F700302418C7C0079047A40
:103FD300007B00122F448A088B090240B3851882A4
:103FE30085198374FFF074011217BB74FFF0740218
:103FF3001217BB74FF124E4CFAA3E0FB74031214A6
:10400300EE126EF8126769122F86E96401600302EB
:104013004095E508125D5512559C4480F8A3E0F9DC
:1040230074241217BBE8F0A3E91266D4A3A3A3E098
:10403300C0E074261217BBD0E0126CEAA3E0540868
:10404300601674241217BBA3E0440112429EC0E021
:1040530074281217BBD0E0F0127AE33509126FF619
:104063006018127AE312668AA3E0C8127E08E0F8A9
:1040730074121217BBE8F0A3E4F0908464121221C7
:1040830074041214EE74071214E6122B84740412CF
:10409300145C850882850983A3A3A3A3A3A3A3A375
:1040A300A3740612429EF9122F26850A08850B096E
:1040B300E5084509700302418C7C007904AA08AB2A
:1040C30009122F448A0A8B0B850882850983A3A3CF
:1040D300A3A3E0F510A3E0F511E4F512F513780CB2
:1040E30079101216F04029E5082404F8E43509F99B
:1040F300850C10850D1188828983C3E09510F0A388
:10410300E095111245E7F8A3E0F9E849709C800EA9
:10411300850882850983A3A3A3A3E4F0A3F08508FC
:1041230082850983A3A3A3A3A3A3A3A3A3A3E06457
:1041330001850882850983A3A3A3A3A3A3702BE00E
:1041430054046003023FE0850882850983A3A3A387
:10415300A3A3A3A3A3A37406F07AB7850882850952
:10416300831243D3122EBA0240ADA3A3A3A3E060EC
:1041730003023FE0850882850983A3A3A3A3A3A326
:10418300A3A3A37401F00240AD122F147C007901A4
:104193007A007B00122F448B09EA4509600C7A20D0
:1041A3007B0090172CE0F912211C850C0A850D0B5E
:1041B3007C0079047A007B00122F44EA4B7015804F
:1041C300538A828B83A3A3A3A312788EE50898E571
:1041D300099940078A828B831259C87C007904129B
:1041E3002F448B0DA90DEA4970D7C3E50A9508E55D
:1041F3000B95095013C3E508950AF508E509950BD6
:10420300F509E508450970167A207B0090172CE024
:10421300F912211C901731124297A3F08037E50859
:1042230025E0F508E50933F509E4F50AF50B780807
:104233001214267A207B0090172CE0F912224E7478
:104243000412145C12226CEAF8EBF9ECFAEDFB9021
:10425300173112178CEE6420FAEF8027EF540260B7
:104263000A12306AEEFAEF64028018EF5404601603
:10427300126BAB79019016DF12676B122B96EEFA75
:10428300EF6404FB80047A007B00742912145C7FC2
:104293000C021118E4F0A3F0A3F0221266D8A3E0F5
:1042A30022C082C08374EA1215247C167D00790033
:1042B300AA18AB191220C874081217BB7402F09025
:1042C30016D5126F091242E774091217BB126E1743
:1042D30074131217BBE4126AFB122A227416121407
:1042E3005C02674BE8F0A3E9F09016DF1261E82265
:1042F30074F7120E1074DA121524EAFEEBFFEE4F78
:10430300602DAC18AD19122F8674061217BBE0602E
:104313001E74171217BBE0FD74011217BBE0FCEE0D
:10432300FAEFFB7900122E7EE9600479A48002790A
:1043330000742602595A74F7120E10EAFEEBFF8E30
:10434300828F83A3A3A3A3A3A3E05440601712788F
:104353005212676B123016E960067AFF7BFF8015F5
:1043630012785280039016D512676B74FE6A70033D
:1043730074FF6B6047127852127421123016E98E63
:10438300828F83600E125E91125D5538F583E4F0DF
:10439300A38003127E33F07CAE7D2E8E828F831238
:1043A300676B122A28E9F5087015EE4F6009790149
:1043B300EEFAEFFB122F20A90802595D7508CDAA6A
:1043C300081243CF122EBAE960E080EB8E828F830E
:1043D300125E95127DEBE0F92274F6120E10E9FEDF
:1043E300EAFF7A0F7B001220DAEA4B601F8A828B86
:1043F30083740CF0EEA3A3F0EF8A828B8312573AF7
:1044030090172CE0F91220E67900802FEEF9122F95
:104413004A8A088B09A808A909E849601C88828987
:1044230083A3A3A3A3A3A3A3A3A37406127AEBE07A
:10443300F9122C26EEF9122F267910026AB974F4B8
:10444300120E108A088B098C0A8D0B9016E6E06415
:104453000F702CEA4509450A450B60239016E1E0ED
:1044630064086005E06404701678081214267A0163
:104473007B0090172CE0F912224E740412145C0294
:10448300471374F4120E1074FC121524EAFEEBFFAA
:104493008E828F83A3A3E0F9122F4A8A088B09EA3D
:1044A300450970030245C28E828F83A3A882A98324
:1044B300E0C0E0EA240B126687D0E01245E764F11E
:1044C30060288E828F83A3E064CD601E8E828F83EB
:1044D300A3E0641A60148E828F83A3E064E9600A08
:1044E3008E828F83A3E064E170367900122F20E976
:1044F300602EE5082404F50AE43509F50B850882E6
:104503008509831245D3A3E0F9850A82850B8312BB
:10451300676B12208C850A82850B83127421806E4F
:104523008E828F83A3E0C0E074021217BBD0E01227
:1045330050F5127E751250E7C0E074031217BBD01A
:10454300E0F0E508240C125599AA18AB197005126E
:104553002B7E8003122FFE74021217BBE064E970F6
:104563002D850882850983124E61750A01780A1226
:104573001432750AE9780A12143212558F1250D781
:1045830012599C12676B122FBC740212145C8508BB
:1045930082850983A3A3A3A3A3A3A3A3A3E0640284
:1045A3007012850882850983A3A3A3A3A3A3A3A34E
:1045B300A37406F08E828F83A3A3E0F9122F261231
:1045C3002F14901898124B03122EC0740402471034
:1045D300A3A3A3A3A3A31245DD22E0FCA3E0FD8EC6
:1045E300828F8322127AFBE02274F4120E10EAFE09
:1045F300EBFF7508008E828F83A3A3A3A3A3E060C0
:10460300487508088E828F83A3A3A3A3A3A3A3A3A0
:10461300A312676B79FF122D108B0BEA450B601009
:1046230075082C8E828F83A3A3A3A3A3E0D2E0F00B
:104633008E828F83A3A3A3A3A3E054036401600327
:1046430002470C43081102470CEE2418125C516018
:1046530038EE241A125C516003F4701312777870E9
:1046630003A3E069600302470C75082202470CEEBE
:10467300241B127660EE241A125C51FAEE241912EE
:104683005C51F9122C1402470C8E828F83A3A3A3CF
:10469300A3A3A3A3A3A312676B123016E96402704A
:1046A300037508011277787003A3E0697006E508C3
:1046B300D2E1F508E50860158E828F83A3A3E0702D
:1046C30006E508D2E58004E508D2E6F5088E828F78
:1046D30083A3A3A3A3A3A3A3A3A312676B1230165D
:1046E300E964017006E508D2E0F5088E828F83A3A2
:1046F300A3E06015EE241D125AAFF9123004E964E9
:10470300016006E508C2E0F508A908800312145CFD
:104713007F0402111874F0120E1074D7121524EAD4
:10472300FEEBFF8E828F83A3A3A3A3E060119018F7
:1047330096126FF86009901896124B03122EC074EC
:10474300031214EE8E828F83A3A3A3A31250C81265
:10475300676B122F86E970030248B1780174051262
:1047630017BBE0C394024002780074071217BBE042
:10477300C3940240027800740C1217BBE064F87013
:1047830003A3E0F470030248B1740C1217BBE06496
:10479300F97003A3E0F470030248B1740C1217BB61
:1047A300E064FA7003A3E0F470030248B1740C12DE
:1047B30017BBE064FB7003A3E0F470030248B17419
:1047C300061217BBE0F99016CFE06960030248B107
:1047D300E8A2E040030248B174271217BBE060036C
:1047E3000248B1EE24131261DE74221217BB126C5D
:1047F300D2241C1261DE74101217BB126E177409D7
:104803001217BBE0601F741A1217BBE0FD74041289
:1048130017BBE0FC8E828F83A3A312676B7901120F
:104823002E7EE9703D74031214E6122ECCE9F508CE
:1048330074091217BBE0702E9016C9E06028742229
:104843005508642260207442550864427014742031
:104853001217BB124B0F600E74201217BB124AECD7
:1048630060047ACF804AE9A2E6504D74201217BB48
:10487300125AB524FD600F14600C24FD600824FD5A
:10488300600424FE702874201217BB124AE5700ED0
:1048930074201217BB126A63A3E0640D601A7403D9
:1048A3001214E612302EE96401700D024AD87AD34D
:1048B3007B00122818024AD8EE242DF582E43FF536
:1048C30083124E3F7003A3E06970227509007809D3
:1048D3001214327809121432EE242F125C51F91299
:1048E3004AF3126765122FBC740212145C74091226
:1048F30017BBE07003024994124AF3126765123042
:10490300948A0A8B0BEA450B7003024A3174041232
:1049130017BBE0F88E828F83A3A3E028F8A3E034CB
:1049230000F9E8240D124ADDF88A828B83A3A3A33E
:10493300E068600EE88A828B83A3A3A31257331225
:1049430042987904E91217BB1250BFE02AF8A3E09A
:1049530034008882F583A3AA82AB831220CE8A0C0B
:104963008B0D8C0E8D0F850A82850B83A3A3A3A3C6
:10497300780C1213E94003024AD89084E8780C12A9
:1049830015F1850A82850B83A3A3A3A3780C1217C1
:104993003D9016E1E064046008E064096003024AA4
:1049A300D8E508A2E54003024A6BEE242F125C51BE
:1049B300851882851983F0EE2430125C51C0E074AF
:1049C300011217BBD0E0F0EE2431125C51C0E07449
:1049D300021217BBD0E0F074141217BBE06401702D
:1049E3002C740E1217BB1255A92413125C51687054
:1049F30003A3E0697017740C1217BB12676B1230B4
:104A030016E96402700774141217BBE4F0EE242550
:104A1300F582E43FF58312122174041214EE740735
:104A23001214E6122B84740412145C024AD89017F1
:104A330026E06401600302499474201217BB124BF1
:104A43000F7009E508A2E650030249947410121787
:104A5300BBE0F47003A3E0F4607BEEFCEFFD7403B2
:104A63001214E6122ED8806DA2E650697420121734
:104A7300BB126EDF7016741A1217BBE06402705516
:104A830074031214E67900122FF880497420121768
:104A9300BB124AEC7014741A1217BBE0640470352D
:104AA30074031214E6122FEC802B74201217BB121E
:104AB3004AE5700C790074031214E612303A80153B
:104AC30074201217BB126A63E0640C70087403123B
:104AD30014E612305274290255C0F582E439F58385
:104AE300E02212785CE064032212785CE06407221F
:104AF300EE242BF582E43FF58312766AEE2413222B
:104B0300E0F508A3E0AA08FBE4FCFD221259B8640F
:104B1300062274F4120E10EAFEEBFF8C088D099046
:104B2300164CE0600F1277787003A3E069700512EA
:104B33002C02805A79008E828F83A3A3A3A3A3A3FD
:104B4300A3A3A312676B122C328A828B83E582455F
:104B5300836033A3A3A3A3A3A3E054186028E508A9
:104B6300241C126687121225E50824131266871285
:104B73001225EE2418125C51F9126752122C447458
:104B83000412145C80087900126752122C08024741
:104B93001374F7120E1074F7121524EAFEEBFF904C
:104BA30016E1E06403600DE064016008E0640960FD
:104BB30003024CAC8E828F83A3E06003024C727CB1
:104BC300007D007A027B001220861278988A828BFD
:104BD300831261E49016D2126E177953122A109041
:104BE30016E1E0640960099016DF12676B12308EDC
:104BF3008518828519837401126AFB7942122A107F
:104C03009016E17404F074011214E6794A122A0A28
:104C130074011214EE7AD77B1612238C901882E05B
:104C2300640B70057406F0800B79009016DF126731
:104C33006B122B969016D21276667A037B001220A3
:104C4300869016D51276667A047B0012208690161B
:104C5300CCE0A2E35004D2F08002C2F0126AF179F0
:104C630052122A10901892121780122EC08037FC0D
:104C73007D007A037B10122086901882E0640B700B
:104C830003740AF09018B8E4F0FA7B4090172CE014
:104C9300F912225A8E828F83124CB312676B122B36
:104CA300969016E1E4F0122F02740902595AE0F8C3
:104CB300A3E0F99016DF22C082C083901671126FB1
:104CC300F8701F9016E1E014600924FC600A146078
:104CD3000C800F90167B8034901677802F90167976
:104CE300802AE84960089016721250D1700C8A82AB
:104CF3008B83A3E0F9122B8A801D901671126EE547
:104D03006402700512305E800E901750126FF860C7
:104D130006126A6412357F02674B74F4120E107424
:104D2300FE1215248A088B097A007B0490172CE065
:104D3300F912225AAA18AB197950122A0A7A0F7B50
:104D4300001220DA8A0A8B0BAE0AAF0BEE4F6020FB
:104D5300850882850983A3E070169016DFE0F4705E
:104D630003A3E0F4603B124E397003A3E0696031A2
:104D7300850882850983A374EA1250ED122A107AFA
:104D8300D57B16794B122A107ADF7B167950122ABB
:104D9300107AD47B1679E1122A10EE4F7003024E7B
:104DA3002D8E828F837402F09016DFE0F47003A3DC
:104DB300E0F4600A124E397003A3E069704F85185E
:104DC30082851983124CB1E8F0A3E91250ED122A3F
:104DD3000A9016D21255AE126E177AD57B16794BFE
:104DE300122A0A7AD47B1679E1122A0A750A007804
:104DF3000A121432780A121432901877124CB41231
:104E0300530E12676B122FBC740212145C85088256
:104E1300850983124E32A3F09016E17403F0EEFA83
:104E2300EFFB90172CE0F91220E67402024710A35F
:104E3300E08E828F83228518828519831261E89020
:104E430016DFE06822E8F0A3E9124E5022F085084D
:104E530082850983E022F582E43BF583E022126137
:104E6300E8E8FAE9FB2274F5120E1074D112152446
:104E73008A088B098A828B83125AA7741C1214EE38
:104E83008A828B83A3A3A3A3A3A3A3A31250D712A2
:104E9300676B122F08741C1217BBE0702C850882F5
:104EA300850983A3A3A3A3A3A3A3A3E0C3940B4054
:104EB300188E828F83A3A3A3A3A3A3A3A3E0640257
:104EC3007007126E03E0F460030250BA9016E1E03B
:104ED30064027003024FA1E064067003024FA190C5
:104EE3001671126FF860081250D17003024FD190FF
:104EF30016E1E064086008E0640460030250BA74D9
:104F03001E1217BB1250BFA3A3A3A3125AA7901636
:104F130071E0F8496007126EEB640260779016DF68
:104F2300E06E7003A3E06F60030250BA74016A601D
:104F33001674231217BBAC82AD837AF37B1612234C
:104F430086E960030250BA7A007B0290172CE0F9DD
:104F5300122260EA4B4C4D60030250BA9016E212E3
:104F630017A485188285198312178C9016E8E0C060
:104F7300E074041217BBD0E0F074051217BB740180
:104F8300F074061217BB7402126AFB122B48E96015
:104F9300030250B7EEFAEFFB1230580250BA9016E4
:104FA30071126FF8702875080078081214327808A7
:104FB300121432EE2410F582E43FF5831250C8A395
:104FC3001245D312676B122FBC740212145C8E82CB
:104FD3008F831261E474071217BBE8F0A3E912553B
:104FE300B41261E474091217BB126CD212617DC052
:104FF300E0740B1217BBD0E01250E7F508A3E0F5FD
:1050030009740F780812172E740C1217BBE508F0F9
:1050130074201217BBE0C0E0740D1217BBD0E0F090
:1050230074221217BBE0C0E0740E1217BBD0E0F07D
:10503300741D1217BBE0C0E074101217BBD0E0F070
:10504300741E1217BBE0C0E0740F1217BBD0E0F060
:10505300EE2410125C51C0E074111217BBD0E0F0C3
:1050630074211217BBE0C0E074121217BBD0E0F03A
:10507300742E1217BBE0C0E074131217BBD0E0F01C
:1050830074231217BBA982AA8389088A09750A00A7
:10509300780812142A7C087D0074171217BBAA82A1
:1050A300AB831220BC740312145C74071214E6124F
:1050B3002B908003122B4E742F025AB9E0FA8E8282
:1050C3008F83A3A322E0F98E828F83A3A322126E80
:1050D300EC640122E0F98A828B83A3A3A3A3A3A395
:1050E300A3A3A322F0126E07E022F07AD27B1679F3
:1050F30053221250F922F08518828519832274F203
:10510300120E1074F8121524EAFEEBFF8C0A8D0BB5
:10511300890D9082A7AC18AD19740812136A750C27
:1051230000EEFCEFFDAA18AB19122386E970037594
:105133000C0190172D801AEEFCEFFDE508240BFA05
:10514300E43509FB122386E97023E508241412666B
:10515300871251866024E50CA2E040DB8508828536
:105163000983E0650A7004A3E0650B70DD8508829E
:10517300850983A3A3E0650D70D0AA08AB09740861
:1051830002574E1259D0E508450922C082C08390C8
:10519300172D02674874F7120E1090172D127B0912
:1051A300800C127256125AAA122194EEFAEFFBEAFD
:1051B3004B70EF90172DE4F0A3F002595D74F112D8
:1051C3000E10EAFEEBFF890A8C088D098E828F830D
:1051D300E08C828D831261ACAE82AF83E01264F106
:1051E3001266F8C41264F112527FE01264F8126678
:1051F300F6A2E2E4338C828D831266F51313135403
:105203001F1264F11266F4A2E7E4338C828D83A348
:10521300A3A3A312527F8E0C8F0D750E00780C1270
:10522300142A7C087D00E5082407FAE43509FB12FB
:1052330020BC740312145CEE2408FE50010F8E0C84
:105243008F0D780C12142A7C037D00E508240FFAD5
:10525300E43509FB1220BC740312145CE50AC39401
:105263000F40118E828F83A3A3A3E0C0E012668355
:10527300D0E08004126683E4F0027893A3A3126162
:10528300B00EAF832274F5120E108A088B098A823E
:105293008B83A3AE82AF83E0F9122BAE8E828F8312
:1052A300E064EB6024850882850983A3E064E16000
:1052B30018850882850983A3E064F1600C85088260
:1052C300850983A3E0641A7009850882850983A38D
:1052D300E4F0901892121780122EC0750A01780A12
:1052E300121432850882850983A3E0F50878081231
:1052F300143279009016DF12530E12676B122FBC13
:10530300740212145C122F14025ABC12766A90169D
:10531300D522EAF0A3EBF002674B74F6120E10905D
:105323001730E0701B7C0079017A007B00122F4458
:10533300EA4B600C8A828B83126FF86003122EB4DF
:10534300026AB9C082C0837904122F3EE9F8903D06
:10535300E5E493C398401079FF122F3EE9F8903D9E
:10536300E3E493C398500479018002790002674B08
:1053730074F0120E108A088B09890B750C008A824F
:105383008B83A3A3A3A3A3A3A3A3E0F9122F4A8A06
:105393000E8B0FAE0EAF0F750A01EE4F6003025472
:1053A3006D850882850983A3A3A3A3A3A3127666AD
:1053B300850882850983A3A3A3A3A3A3A3A3E0F9D9
:1053C30085088285098312676B122F328A0C8B0D35
:1053D300AE0CAF0DEE4F70030255888E828F83A300
:1053E300A3A3A3E4F0A3F0E508240CFAE43509FB36
:1053F3008A828B83E0C0E012558FD0E0F0E5082469
:105403000D1255A2240D126E1112301CEE240F1230
:10541300741BE50824111255A22411126E11E5081C
:105423002413125599C0E0126CBBD0E0F0750C0147
:10543300EE2406126171547FF0A3E054FC1245E799
:10544300540460030254E29018A4E0F508750900BF
:10545300740778081216638E828F83A3A3A3A3A372
:10546300A3E04508F0A3E04509F08E828F83A3A350
:105473001259C87407780812172EE5085407FCE57B
:105483000B606C8E828F83A3A3A3A3A3A3A3A3A365
:1054930074021266F9125873600B9016CD1255AE52
:1054A300A3A3126E17EC7003025556EE2406127D69
:1054B300F4547FF508A3E054FCF509EC24FFF50E42
:1054C300E434FFF50F7407780E121663E508450EF2
:1054D300F8E509450FF98A828B83126E1780748E63
:1054E300828F83A3A3A3A3A3A3E0448002546CEC01
:1054F3007005750A00805C8E828F83A3A3A3A3A388
:10550300A3E05420600C1220D4EA547F7900245F76
:1055130080198E828F83A3A3A3A3A3A3E054106057
:105523001A1220D4EA540F7900240A5001098E82FA
:105533008F83A3A3A3A3F0A3E9800D8E828F83A3FC
:10554300A3A3A37401F0A3E41255B474041257F691
:1055530012211CE50CA2E0502F8E828F83A3A3A3FC
:10556300A31271DCE0F9EEFAEFFB122F38E96018B1
:10557300126FEF6009EE240F126765122194EEFAA1
:10558300EFFB122194750A00A90A8034EE240CF56E
:1055930082E43FF58322F582E43509F583E022F5C1
:1055A30082E43509F5831261E8EE221278BCA3A3E5
:1055B300221255B822126434A3A3A3A32212145CAB
:1055C3007F0802111874F4120E1074F71215247E5A
:1055D30000122F4AEA4B700302568E8A828B83A3F2
:1055E300A3A3A3A3A3A3A3A3E06406600302568E0D
:1055F3008A828B83A3A3A3A3A3A3A3E0FF8A828BA3
:1056030083127E18E0C0E074081217BBD0E0125971
:10561300AFF8A3E0F9851882851983126E17122F4C
:105623005CEF540860638518828519831276667A65
:10563300007B00122F2C8B0BEA450B704C127E67FC
:10564300122A3A7C007D007A007B0080288E828FAC
:1056530083125AB5F47003A3E0F4602D9016DF12A1
:1056630045D912676B122A34E9641A601C7C007DE9
:1056730000EEFAEFFB122F2C8A0A8B0BAE0AAF0B4C
:10568300EE4F70C97900122A407E01EEF9740902C7
:105693004710C082C083EA4B700590173580068A95
:1056A300828B83A3A31258AB60208A828B83A3A32C
:1056B300A3A3A3A3A3E0540860E5EC4D6010125824
:1056C300B27003A3E06D70D780047A007B00026799
:1056D3004B74F2120E10EAFEEBFF890A8C088D0957
:1056E3007A147B0012218EEA4B603A8A828B83A361
:1056F300A3A3A3A3A3A3A3A3E41259A4A3E50A12F8
:105703007863A3127E731257331259C212573A8A1F
:10571300828B83127880EA127AE53BF583E4F012F8
:10572300572AF0A3F08027A3F08A828B83A3A322B6
:10573300127877E4F0A322A3F01257453BF583E4F4
:10574300F022EA126AE022A90A740312145C7F06AB
:1057530002111874F4120E10EAFEEBFF89088C0A8A
:105763008D0BEE4F70030257F174016508701279C7
:1057730001122F3EE9F8903DEBE493C39850228049
:10578300167404650870147904122F3EE9F8903DED
:10579300E5E493C398500A79118055740265087043
:1057A3004D8E828F83A3A3A3A3A3A3A3A3A3E508DF
:1057B3001261ACA31274BAE4F0A3F0901735126F20
:1057C300F8601A8003E0F8A3E0F988828983A3A331
:1057D3001258AB88828983A3A370EA80039017359C
:1057E300EEF0A3EF1257F612211C7900800279C163
:1057F300024713F07A207B0090172CE0F922C08235
:10580300C083E9F87900901735801D8A828B83A3C2
:10581300A3A3A3A3A3A3A3A3E068600574FF687075
:1058230001098A828B83A3A31258AB70DE02674BF4
:1058330074F7120E10EA4B700590173580068A82B2
:105843008B83A3A31258AB60208A828B83A3A3A369
:10585300A3A3A3A3A3A3E06970E4EC60108A828BE3
:1058630083E012587370D780047A007B0002595D7D
:10587300F8A3E0C8127E3FE0540422C082C08390A4
:10588300173580068A828B83A3A31258AB60128AD2
:10589300828B83A3A3A3A3A3A3A3A3E06970E5803F
:1058A300047A007B0002674B127B09FBEA4B22124E
:1058B30059B46C2274F2120E108A0A8B0B8C0C8D65
:1058C3000D750800750900EA450B603090173580A7
:1058D300068E828F83A3A3125AAAEE4F601EAC0CCE
:1058E300AD0DEEFAEFFB850A82850B8312357FE956
:1058F300640170DDEEF8EFF988088909AA08AB099D
:1059030002575174F7120E109017351261E47C00A0
:105913007D00800DE8FCE9FD88828983A3A31261E1
:10592300E4E8496030EA687002EB6970E790173584
:1059330012676BE86A7002E96B88828983A3A3709C
:10594300081261E490173580091261E48C828D831B
:10595300A3A3126E17800312145C7F010211187443
:10596300F7120E10EAFEEBFFEE4F602B122F5612CA
:1059730059D81267691221948E828F8312676B1232
:105983002194126FEF6009EE240F126765122194C0
:10599300EEFAEFFB12219480C112766A8A828B831E
:1059A300221259A82212787BA3A3A322F01259B47E
:1059B300228A828B83E0F8A3E0F5838882E02212B7
:1059C30059A8A3A322A3A3A3A31259D022E0F508A5
:1059D300A3E0F509228E828F83125E95125E8B38C7
:1059E30022C082C083EAFCEBFDEC4D6017EC24FB84
:1059F300F582ED34FF126FF67007125A3EE0F46041
:105A0300071220E07905803090172CE0C0E0125A8D
:105A13003ED0E0F0903DF1E493F97A377B17122101
:105A230016E9640170107A007B2090172CE0F912BC
:105A3300211C79008002790402674BEC24FFF58274
:105A4300ED34FFF5832274F4120E10A2AFE433F5A4
:105A530008C2AF901737125AAAEE4F603AEE24FBF2
:105A6300F582EF34FF126FF67A007B2090172C60DB
:105A730007E0F912211C8005E0F9122122E4F50A5E
:105A8300F50B780A12142EEEFCEFFD7A377B171212
:105A93002110740212145CE508A2E092AFEEFAEF53
:105AA300FB024713A3A3A31274D2FF22F582E43FA0
:105AB300F5831259B82212145C7F0302111874F291
:105AC300120E1074FA121524EAFEEBFF750AFE7526
:105AD3000BFF122F1AE960057911025C49EE2415B8
:105AE300125C5160359018C2E0C43354E0F8E033DF
:105AF3003354FC48C0E01263FAD0E0127E48FAA3A4
:105B0300E0FB79FF122D108B09EA4509600C750A39
